:020000040000FA
:1000000002002700000080FB120051B9000302002B
:100010001175829775830074001200337582037521
:100020008300740012003375D0007581BF759F0086
:10003000020008C09FF59FE473D09F22D083D08236
:10004000C09FE493C0E0740193C0E0740293F59FF5
:100050002279012212003C60000012003C6800007E
:1000600043FD01C2800200397C007D008019E82434
:1000700001F8E93400F9C3E89417E9940240EFEC81
:100080002401FCED3400FDC3EC9AED9B5006780092
:10009000790080E202003912005443FE08C2937ACC
:1000A000E87B0312005AC2937AE87B0312005A805D
:0100B000EC63
:0400000500000027D0
:00000001FF
