:020000040000FA
:1000000002002700000080FB120051B9000302002B
:10001000117582C8758300740012003375820375F0
:100020008300740012003375D0007581BF759F0086
:10003000020008C09FF59FE473D09F22D083D08236
:10004000C09FE493C0E0740193C0E0740293F59FF5
:100050002279012212003C6C000012003C74000066
:1000600012003CA3000012003CB5000043FD01C299
:10007000800200397C007D008019E82401F8E93411
:1000800000F9C3E89417E9940240EFEC2401FCED79
:100090003400FDC3EC9AED9B50067800790080E2B5
:1000A000020039E9A2E09290E9A2E09291E9A2E08F
:1000B0009294020039C082C08343FE13790012007B
:1000C00060D083D082020039120054120066802B67
:1000D00079011200607AC87B0012005A7900120080
:1000E000607AC87B0012005A0EEEC3940240E17998
:1000F000001200607AF47B0112005AD2F0A2903014
:10010000F001B392907AC87B0012005AD2F0A2910B
:1001100030F001B392917AC87B0012005AD2F0A25B
:100120009430F001B392947AC87B0012005A7E009A
:0201300080B796
:0400000500000027D0
:00000001FF
