:020000040000FA
:1000000002006000000080FB120090B900030200B3
:100010004AE4900200780D79018002F0A3D8FCD95F
:10002000FA90020CAA82AB839000937864790180E5
:1000300015E493A3AC82AD838A828B83F0A3AA825A
:10004000AB838C828D83D8E9D9E775820B75831DCC
:1000500074001200727582037583007400120072BE
:1000600075D0007581BF751000751102759F000273
:100070000008C09FF59FE473D09F22D083D082C038
:100080009FE493C0E0740193C0E0740293F59F2253
:10009000790122766F6C3A252E3032665600333362
:1000A00053400000804430313233343536373839EC
:1000B00041424344454600286E756C6C20706F6960
:1000C0006E74657229003F3F3F000000807F000092
:1000D000803F00000000F9021550B743BA510000FC
:1000E000204100E7DB2E0000A040100000000800C7
:1000F00000000A00000012007B511C0012007B600F
:100100001C0012007B7D1C0012007BBB1C00120037
:100110007BEA1C0012007BF21C0012007BE11D0038
:1001200012007B0B1E0012007B020C0012007B20D1
:100130001100C008C3E096F50808A3E0964208083D
:10014000A3E096420808A3E0964208A2D265D03305
:10015000E5087001D3D00822080808E630E711123C
:100160000994120170080808C64480C6181818229D
:10017000181818E9799EC608CAC608CBC608CCC6A6
:10018000C370207996CACBCC7019798ECBCC701302
:100190007986CC700EF9802ACA33CACB33CBCC33E4
:1001A000CC331930E7F2CCCBCA3350147004EA30A8
:1001B000E00DE4CA3ACACB3BCBCC3CCC500209C3DD
:1001C000E913C6CC182313C6CB18C6CA18C6F92221
:1001D00012021020F01430E72B74FFFCFBFA747F3E
:1001E0008022E4FCFBFA7480801AB48008BC00F220
:1001F000BB00EF800F50EBF9E4C39AFAE49BFBE4F9
:100200009CFCE499C6CC18C6CB18C6CA18C6F922FD
:10021000E4C9C608CAC608CBC6D3330308CCC63364
:1002200092F0C3947F402E94184019C9B90704CAAC
:10023000CBCC225025C309CA33CACB33CBCC33CC69
:1002400033D9F422F4600DC9CCC313CB13CBCA133A
:10025000CAD9F6CC22E4FCFBFA2214FCFBFA22E613
:10026000C33318461846184622E7C33319471947BF
:10027000194722181818E6084608700AE608C3331A
:100280007005E633F4220822191919E709470970A5
:100290000AE709C3337005E733F4220922E608466A
:1002A00008C3134608336002E633F422E70947091E
:1002B000C3134709336002E733F42212029D60251D
:1002C0001202AC602012025F700302026908080883
:1002D000E76670101819E766700A1819E766700467
:1002E0001819E76622F42212029D601C1202AC600B
:1002F0001712025F70071202697001D322C0D01278
:1003000002697006D0D0B322C32233D0D05014304B
:10031000E0F6C3E7960809E7960809E7960809E7B3
:1003200096B32220E0D5E6970809E6970809E697F4
:100330000809E697B32212029D601B1202AC6016F8
:1003400012025F7007120269600CB322C0D0120261
:10035000697005D0D022C32233D0D0501330E0EBE7
:10036000C3E7960809E7960809E7960809E7962281
:1003700020E0E4E6970809E6970809E6970809E609
:1003800097220012029D604F1202AC6012E7548067
:1003900066F61202737011120269703B090909F4C2
:1003A000F618F618F618F622120288701512025F77
:1003B00008080860EAE6447FF618768018E4F61824
:1003C000F62212025F60161202697012E4F608F655
:1003D00008F608E65480F609090918181822EAC038
:1003E000E0EBC0E0ECC0E0EDC0E0E687F0A4FBACE1
:1003F000F008E687F0A42CFCE435F0FA1809E6874B
:10040000F0A42C4B60027401CA35F0FCE433FB0904
:10041000E687F0D2F7A42CCB35F0FC1908E687F07C
:10042000A42BCC35F0FBE433FD0819E687F0D2E7C6
:10043000A42C4ACB35F0CD3400FC09E687F0D2E796
:10044000A42DCC35F0FDE433FA0918E687F0D2F795
:10045000A42CCD35F0CA3400FC08E687F0D2E7D2F0
:10046000F7A42ACC35F07A7E20E70B0ACB33CBCD2C
:1004700033CDCC33CC33CB3350147004ED30E00E9D
:10048000D2F1E4CD3DCDCC3CCC3B5005DA05C2F1F8
:10049000EB547FC63308E63392F0FBE73309E733CA
:1004A000C39A502D2B70190C0D4C4D70151806E683
:1004B00008C333700D20F10AA2F013F6E418800B84
:1004C0004024E4F630F002768018F618F618F6802C
:1004D00024D33B14501074FFA2F013F6187680E476
:1004E00018F618F6800FA2F013F618E63303F61884
:1004F000ECF618EDF6D0E0FDD0E0FCD0E0FBD0E06B
:10050000FA221202AC604612029D603DE968700852
:10051000F618F618F618F622748067F712053609F1
:100520000909748067F72212029D601D1202AC70E7
:1005300005191919801A120273701F120288C370EC
:1005400003E6673319191940071818182208080814
:1005500074FFF618F618F618F622120288601712C1
:100560000269702192F012025F7019501720F01486
:10057000080808090909E7F61819E7F61819E7F64F
:100580001819E7F62212025F60E6E869701F080892
:10059000E62480F608E436F618547FB47F0CE6545F
:1005A000806007F6E418F618F622181822E9C6CC7F
:1005B00008C6CD08C6CE08C6CFC0E0E8C0E0EAC095
:1005C000E0EBC0E009E9F809E7FA09E7FBE6F9180A
:1005D000E6F8C3EC98ED99EE9AEBC2E7F5F0EFC2BE
:1005E000E795F0500E600CEBCFFBEACEFAE9CDF9BF
:1005F000E8CCF8EAA2E7D2E7FAEB33FB13F5F0EE2A
:10060000A2E7D2E7FEEF33FFC5F013A2E730E60121
:10061000B313C5F0C3C0E0C0F07F00C39BFB605BB9
:100620009418600C401AD0E023F9D0E0F8020705D6
:100630008AF0E9486003D2F0E4AFF0FAF9F8803BC1
:10064000EB30E40D89F0EA6003D2F0E4AFF0F9CAD0
:10065000F8EB30E30D88F0EF6002D2F0AFF0E4CABF
:10066000C9F8EB54076014FBC3EA13FAE913F9E87D
:1006700013F8EF135002D2E0FFDBEDD0E0C0E03022
:10068000E739C3E49FFFF5F0EC98FC42F0ED99FDEB
:1006900042F0EE9AFE42F0D0E0F9D0E0F8E5F060EA
:1006A0007AE923F9EE20E742D8028067C3EF33FFEF
:1006B000EC33FCED33FDEE33FE80EAEC28FCED3943
:1006C000FDEE3AFED0E023F9D0E0F84002801BC3F3
:1006D000EE13FEED13FDEC13FCEF135002D2E0FF1E
:1006E00008B800067F7F74FF802EEF3350178CF020
:1006F00020F00260100CBC000C0DBD00080EBE0006
:100700000408E860DFE933E813FFEE2313FE4F4DE2
:100710004C8008E95480FFE4FEFDFCEE33EF33F437
:100720007004FCFD7E80D0E0FBD0E0FAD0E0F8D091
:10073000E0CFC618CEC618CDC618CCC6F922120214
:100740009D7004181818221202AC700D74FFF61870
:1007500019F61819F61819F622E7548066F61202EF
:100760005F700F12026970F014F608F608F608F6CA
:1007700080D1120269700CF608F608768008E6440B
:100780007F80EC12028B700C12027660BFE6548000
:10079000F6E480BB120276700519191980A5E86984
:1007A000700C763F18768018F618F6E8F922E6CD38
:1007B000C0E018ECC0E0E633CD33CDD313F6E71933
:1007C000FCE7191933CC33C3947F400ECD9D5024E0
:1007D00008E65480F6E418F6800FF4043D14501433
:1007E00008E6447FF6187680E418F618F6D0E0FCA8
:1007F000D0E0FD22CCD313CCFD18E4C6CBC0E0186A
:10080000E4C6CAC0E00808ED08C633E613F618E4EB
:1008100033C675F003C3CA97CA09CB97CB199C405E
:10082000047D08802EBD00030208E716B6FF05060A
:1008300006081618C3CA33CACB33CB33CA27CA0932
:10084000CB37CB193CC37D08803E187D0820E75C80
:10085000C633C6CA33CACB33CB33DDF1D5F0EB3068
:10086000E77BCA97CA09CB974ACB199C406F4B705C
:1008700025E620E0218066187D08C3CA97CA09CB07
:1008800097CB199CD3C633C6CA33CACB33CB3350AC
:10089000C9DDE7D5F0E1D3E4C636C608C636C608DA
:1008A000C636C608C636C61818188031C3CA97CAD5
:1008B00009CB97CB199CB34097C633C6CA33CACB72
:1008C00033CB33DD34D5F02EC6A2E0C640C8CA27EC
:1008D000CA09CB37194A70BECB3CB480B90808E6C8
:1008E0003308E633601F181818D0E0FAD0E0FBD0C8
:1008F000E0FCD0E0FD22187D08CA27CA09CB37CB1F
:10090000193CD3808013F618E4B67F11F618B6FFB1
:100910000EF618C60470D20808768080CAF618F65B
:1009200018F680C5E4CFC0E0E4CEC0E0E4CDC0E07E
:10093000E4CCC0E075F020C3E633F608E633F608F1
:10094000E633F608E633F6181818EC33FCED33FD01
:10095000EE33FEEF33FFC3EC9709ED9709EE9709ED
:10096000EF97191919400FFFEC97FC09ED97FD0956
:10097000EE97FE191906D5F0BEECF709EDF709EE72
:10098000F709EFF7191919D0E0FCD0E0FDD0E0FE2F
:10099000D0E0FF22181818E4C396F608E496F6088B
:1009A000E496F608E496F622E0F608A3E0F608A33B
:1009B000E0F608A3E0F622E6F008A3E6F008A3E6D6
:1009C000F008A3E6F022E0FAA3E0FBA3E0FCA3E03A
:1009D000FD22EAF0A3EBF0A3ECF0A3EDF022CAC0F5
:1009E000E0E6F0A308DAFAD0E0FA22CAC0E0E0A319
:1009F000C582CCC582C583CDC583F0A3C582CCC5D5
:100A000082C583CDC583DAE6D0E0CA22C3E498F874
:100A1000E499F9120A4D8026C3E49AFAE49BFBE9B3
:100A200020E7E9120A4DE498F8E499F922C3E49822
:100A3000F8E499F9120A4DE498F8E499F9C3E49AB4
:100A4000FAE49BFB22EB20E7CFE920E7E0B90010B6
:100A5000BB0008E88AF084F8AAF022E4FBC8FA2276
:100A6000EB70227B10C833C8C933C9335007C39A0F
:100A7000C3DBF280069A50012ADBEAC833F4C8C906
:100A800033F4C9FA2275F008E4C833C8C933C9334E
:100A9000C99AC99B5004C92AC93BD5F0ECFBC8339D
:100AA000F4C8E4C9FA22600C08C6C313C618C613FA
:100AB000C6D5E0F422251010AF08F510400215113C
:100AC0008008F51040021511D2AF22C0D0251010B9
:100AD000AF08F510500205118008F51050020511FD
:100AE000D2AFD0D0222510F58210AF08F510400209
:100AF00015118008F51040021511D2AF851183221F
:100B00002510F582E43511F58322E4732510C582A2
:100B1000C0E0E51134FFC583C0E0E510C395822431
:100B2000F810AF08858311858210800885831185B0
:100B30008210D2AFCEF0A3E520F0A37808E608F04B
:100B4000A3DEFAEFF0A3E58124FAF8E608F0A3E6C5
:100B500008F0A3E608F0A30808E608F0A3E608F00A
:100B6000A315811581D0E0FED0E0F815811581151F
:100B700081E8C0E0EEC0E022851183851082E0A309
:100B8000FEE0A3F5207808E0A3F608DFFAE0A3FF73
:100B9000E0A3C0E0E0A3C0E0E0A3C0E0E0A3C0E0C9
:100BA000E0A3C0E010AF088582108583118008851E
:100BB0008210858311D2AFD083D082020078740472
:100BC0008006740280027401C0E0F404120AE5D0C9
:100BD000E01209DE2274028000CCC0E0EDC0E0E546
:100BE00010C39CCCAD1150011D10AF068C108D119F
:100BF00080068C108D11D2AF1209EBD0E0FDD0E051
:100C0000FC2274F0120B0C74FD120AB57402120B64
:100C100000E9F08A088B098C0A8D0B7415120B0001
:100C2000E0FEA3E0FF851082851183E4F0A3F08E3F
:100C3000828F83A3AA82AB83900243780C1209A807
:100C40007808790C1202BB70188E828F8374691237
:100C500010E1746EF0A37466F0A30A0AAB8302106D
:100C60007C780879081202BB60118E828F83746EC3
:100C70001210E17461F0A3746E80DD900247780C6D
:100C80001209A87808790C1202E75003020D2C9083
:100C9000024B780C1209A87808790C1202BB600389
:100CA000020D807417120B00E07003020DC2851054
:100CB00082851183C082C0837413120B00121B1F24
:100CC000D083D0821210BA502C851082851183C334
:100CD000E094FCA3E094FFA2D265D03340177402E5
:100CE000120B00E4121BF3F97413120B00C3E0980B
:100CF000F0A3E099F07413120B001210D7741812BD
:100D00000B00E07003020DBF7417120B00E4020D1C
:100D1000C190024F780C1209A87808790C12073E8E
:100D2000851082851183E0240A121C3090025378CA
:100D30000C1209A87808790C1202E740D4900257E7
:100D4000780C1209A87808790C1202E74003020C0B
:100D5000A3900257780C1209A87808790C12073E64
:100D6000121C2780D890024F780C1209A8780879B5
:100D70000C120382851082851183E024F61210DAAA
:100D800090025B780C1209A87808790C120336409F
:100D9000D4900247780C1209A87808790C1203360F
:100DA0004003020CA3900257780C1209A878087926
:100DB0000C1203828510828511831210D780D274A1
:100DC00001F07402120B00E060077A007B00020E53
:100DD000CE1210C6507D8E828F837430F0EAFEEB07
:100DE000FF7413120B00E0FCA3E0FDEC4D700874DF
:100DF00018120B00E0600B8E828F83742EF0A30E0E
:100E0000AF837A007B0080118E828F837430121141
:100E1000027413120B001210D7EA24FF1AEB34FFEE
:100E2000FB8510828511831210AE500B7413120BC8
:100E300000121B234970D185108285118374FFC372
:100E40009CF874FF9DF91210BA5003020F9C7A01AE
:100E5000020DCC851082851183121B1FC3E498FA02
:100E6000E499FB806985080C85090D850A0E850BC0
:100E70000F780C1201D0AC0CE50D3395E0F50EF5B2
:100E80000F780C1201587808790C1205029002575D
:100E9000780C1209A87808790C120382EC1210FC65
:100EA000EAF8EBF9E824010AE93400FBE849701E8E
:100EB0007413120B00121B234970087418120B00D4
:100EC000E0600B8E828F83742EF0A30EAF837413B9
:100ED000120B001210AE508D90025F780C1209A810
:100EE0007808790C1202E74003020F9C7C01EE2483
:100EF000FFF8EF34FFF97415120B00E0F508A3E0DA
:100F0000F50988828983E0642E6010E02CF0643A51
:100F100070077430F07C0180027C00E8FAE9FBEA9B
:100F200024FF18EB34FFF9C3E5089AE5099B40D28A
:100F3000ECA2E050677402120B00E06036EEF8EFAE
:100F4000800A121099E824FF18E934FFF9C3E50874
:100F500098E509995018121086E0642E70E4E82490
:100F6000FEF582E934FFF583121093F980D7121C45
:100F700027801E8E828F83A3AE82AF83EEF8EF8030
:100F800006121086121093F9C3E50898E5099940F6
:100F9000F07415120B00121B3E7431F07417120B13
:100FA00000E07005801A1EAF83EE24FFF582EF3457
:100FB000FFF583E0643060EEE0642E70031EAF83C3
:100FC0007402120B00E070030210781210FEA3A945
:100FD000831210C68E828F835014742DF00EE9FF99
:100FE000851082851183121B671210EF8006742B07
:100FF000F00EE9FF7C007D00EE240AFEEF3400FFD6
:10100000EC24010CED3400FD1210A0120A45EA1286
:1010100010FC1210A0120A451211094970E2C3EC2B
:101020009402ED121AD040D8ECFAEDFBC3E49CF820
:10103000E49DF9EE28F582EF39F583E0C0E0C3E4E2
:101040009AF8E49BF9EE28F8EF39F9E82CF8E93D35
:10105000F9E824F5F582E934FFF583D0E0F0EC24DB
:10106000FF1CED34FFFDC3EC9401ED121AD050BC0F
:10107000EE24F6FEEF34FFFFEEFAEFFB7403120AE4
:10108000CB7F08020B78E824FFFAE934FFFB8A8261
:101090008B832212109918EB22E088828983F02238
:1010A000851082851183121B747A0A7B0022C3E0AB
:1010B0009AA3E09BA2D265D03322C3E098A3E09923
:1010C000A2D265D03322851082851183C3A3E09418
:1010D00000A2D265D03322E024FFF0A3E034FFF079
:1010E00022F0EAFEEBFF8E828F8322A3E03400F928
:1010F000851082851183E8F0A3E9F02224308E82E6
:101100008F83F0A3AE82AF83228510828511831274
:10111000111322E8F0A3E9F0851082851183E02203
:1011200074F0120B0C74B0120AB58510828511830D
:10113000121BD97418120B00ECF0A3EDF0740F120F
:101140000B00E4F0A380227460120B00121B0F74DA
:1011500004120B00E0F97418120B00121B3E120B64
:101160000A740F120B00121AD8F0121B52FA121C3A
:1011700012120B00EAF074256A6010E070C9740F57
:10118000120B00121B0F745002107E121B526425AA
:101190007019851082851183E02401081210EB7408
:1011A00060120B00121B0F792580AB740E120B001E
:1011B000E4F0740D120B00E4F0740C120B00E4F078
:1011C0007405120B00E4F0741E120B00A882A983B0
:1011D0007402120B0080157405120B00E070077486
:1011E00005120B00EAF085108285118312110F128F
:1011F0001B06121B99FA24E060DD24FD601724F819
:1012000060DD24FE600624FD600F8011740C120B5B
:1012100000E00480D0740D80F5740E80F1121B99EB
:10122000642A705B7462120B00121BA4FB8A828B0F
:1012300083E0FCA3E0FD740A120B00ECF0A3EDF0D8
:10124000EA24020A0AEB3400FB7462120B00121B40
:10125000D1740A120B001210CC501F740A120B002A
:10126000121B0FC3E49AFAE49BFB740A120B0012E0
:101270001BD9740C120B00E004F01210F0804A74B9
:101280000A120B00E4F0A3802D740A120B00121B4B
:101290002375F00AA4F8AAF075F00AE9A42AF9E582
:1012A0000828F8E439F9E824D0F8E934FFF9740A99
:1012B000120B00121C37121BF3F5838882E0F5082D
:1012C00074D02508C3940A40C0740C120B00E0606F
:1012D00007740E120B00E4F0121B52642E6003021E
:1012E000136B851082851183E0240108A3E034008C
:1012F000F9121109121B43E0642A702C7462120B5C
:1013000000121B58F8A3E0F988828983E0FEA3E06D
:10131000FFE824020808E93400F97462120B001295
:101320001B8C121C37F080477E007F008510828561
:101330001183121B6174D02508C3940A5031EE75D5
:10134000F00AA4FEA8F075F00AEFA428FFE5082E25
:10135000F8E43FF9E824D0FEE934FFFF85108285E8
:101360001183E02401F81210EB80C17EFF7FFF7A29
:1013700000851082851183121B01851082851183DF
:10138000E0FBA3E0F5838B82E024B4600824E460F2
:101390000524FC70040A1210F0121B52FB121C12DE
:1013A000120B00EBF0700302197624BB70030218D5
:1013B0003C24FE700302181E24EF700302156824FB
:1013C000F5700302146D14700302160D14700302FD
:1013D000183C14700302183A14700302181E24FEFD
:1013E000700302160D24FB602414700302155814B8
:1013F000700302156824FD70030214A624FE700316
:1014000002156824FD7003021568021982746212C5
:101410000B00121BCB120B001210F6EAA2E0740FA5
:101420005033120B00E0FCA3E0FD3395E0FE7406A0
:10143000120B00121BACECF0A3EDF0A3EEF0A3F046
:101440007462120B00121BB3120B00121B8CE8F01B
:10145000A3E9021169120B00121B1F7406120B0084
:10146000121BA4F5838A82E8F0A3E980D274621289
:101470000B00121BACE0C0E0741E120B00D0E0F0B9
:101480007462120B00121BB3120B00121B8C121091
:10149000F6741F120B00A882A9837412120B00E8C5
:1014A000F0A3E90219997462120B00121BCB120B04
:1014B000001210F67406120B00121BCB120B00E088
:1014C0002402FAA3E03400FB7462120B00121BD159
:1014D0007402120B001210F6E849700C7402120B21
:1014E000007430F0A37402F0121ACE50047E107F04
:1014F000277408120B00E4F0A380087408120B0094
:10150000121AD8F07402120B00121B1F88828983F2
:10151000A3AA82AB837402120B00121BD9888289A2
:1015200083E0600A7408120B00121B2840CD74027D
:10153000120B00121AEF7412120B001210F674083C
:10154000120B00121B67F97412120B00E028F8A3AB
:10155000E039F9740202149C740D120B00E060086B
:10156000EE4F70047E017F007462120B00121BCBE1
:10157000120B00121C1F120B00E06470703874060E
:10158000120B00121BC1120B00121BFA120B00E00F
:101590002402121B83120B00121B8C1210F69002F5
:1015A000631209C6741A120B001209D27405120BC9
:1015B00000E4F002169DEAA2E07406501B120B0034
:1015C000121B3E1209C67414120B001209D27406C3
:1015D000120B00E024048012120B00121BC1120B2C
:1015E00000121BFA120B00E02402121B83120B00E4
:1015F000121B8C121C1F120B00E0646F700590020E
:1016000067809EE06475709690026B80947462129D
:101610000B00121BCB120B001210F6EAA2E07406AC
:101620005016120B00121B3E78081209A8740612FD
:101630000B00E02404F8801B120B00121B61A3E0D6
:10164000F5093395E0F50AF50B7406120B00E0245A
:10165000020808121B84120B00121C07120B0078E0
:10166000081209B790024B78081201324021740524
:10167000120B00742DF07414120B0078081209A8D4
:1016800078081209977414120B0078081209B790A1
:10169000026B1209C6741A120B001209D2744F128F
:1016A0000B00A882A9837402120B001210F67412A8
:1016B000120B00121C0A120B0078081209A8E50888
:1016C0004509450A450B60097411120B007401802D
:1016D000067411120B00E4F0EE4F7008E0A2E04037
:1016E000030217917402120B00121B38120B001226
:1016F0001C0A120B00780C1209A8741A120B00783D
:10170000081209A8780C7908120924741F2508F515
:101710008274023509F583E0C0E07402120B0012F6
:101720001B3ED0E0F07414120B00780C1209A87460
:101730001A120B0078081209A8780C7908120924EB
:101740007414120B00780C1209B77414120B007881
:10175000081209A8E5084509450A450B7086121AC2
:10176000CE502E740E120B00E060267405120B0092
:10177000E06004D2F08002C2F0740A120B00121A68
:10178000E1800E7402120B00121BEB120B00121BF5
:101790004B7402120B00121AEF744F120B00C0822E
:1017A000C0837402120B00121B0FD083D082E5821B
:1017B000C39AFAE5839BFBC3EA9EEB121B3140C33D
:1017C000740D120B00E0700302199A7411120B00D1
:1017D000E0A2E0400302199A7404120B00E064785E
:1017E0006005E06458701E121099E824FF18E9346F
:1017F000FFF97402120B00121BEB120B00121B3EBE
:101800007430021999E0646F600302199A7402122D
:101810000B00121B9F6430700302199A80D4740865
:10182000120B007401F0A3E4F07404120B00E02426
:10183000FEF0EE4F700F7E018012E4F07408120B80
:1018400000E4F0A3F0121ACE50047E067F0074620A
:10185000120B00121BCB120B001210F67406120BA7
:1018600000121B3E780C1209A87406120B00E0242B
:1018700004121B83120B00121C07120B00780C12AF
:1018800009B790024B78081209A8780C790812035E
:101890003650227405120B00742DF07414120B00D4
:1018A00078081209A8E50BB2E7F50B7414120B00C7
:1018B00078081209B7740A120B00121B1F741E124B
:1018C0000B00E58228F8E58339F97402120B001247
:1018D00010F6740D120B00E0F5087808120BC674B0
:1018E00009120B00E0F5087808120BC67404120BFD
:1018F00000120BD58E088F097808120BC2740A12D9
:101900000B00E0F9741A120B001209C612012674BA
:1019100006120ACB7412120B00121BD9740E120B92
:1019200000E060767405120B00E06004D2F08002E3
:10193000C2F0740A120B00121AE17412120B00C0EA
:1019400082C0837402120B00121B1FD083D082E06E
:10195000C398F8A3E099F9C3E89EE9121B31503A05
:101960007402120B00121B38120B00121BEB120B2D
:1019700000121B4B80C4851082851183121AF81245
:1019800010EF7402120B00743FF0A37402F0741293
:10199000120B007442F0A37402F07412120B00C018
:1019A00082C0837402120B00121B1FD083D082E00E
:1019B000C398FEA3E099FF740A120B00121B285073
:1019C0000A7408120B00E4F0A380307405120B00B7
:1019D000E06004D2F08002C2F0740A120B00E0C38F
:1019E0009EF8A3E09FF9A2F0E433FAE89AF8E994AC
:1019F00000F97408120B00E8F0A3E9F0740C120B64
:101A000000E0702B80197460120B00121B15120B72
:101A100000121B3E120B0A740F120B00121C2D74C5
:101A200008120B00121BDF120B001210CC50D774DF
:101A300005120B00E060507460120B00121B0F7453
:101A400005120B00E0F97418120B00121B3E120B6A
:101A50000A802C7460120B00121B0F7402120B0010
:101A6000121B58F97418120B00121B3E120B0A7449
:101A700002120B00121B017402120B001210F674FA
:101A80000F120B00121C2DEE24FF1EEF34FFFFC3BC
:101A9000121AD050BE740C120B00E0700302116ACF
:101AA0007408120B00121BDF120B001210CC500333
:101AB00002116A7460120B00121B15120B00121B2C
:101AC0003E120B0A740F120B00121C2D80D2C3EFB2
:101AD0009400A2D265D03322E02401F0A3E03400C8
:101AE00022A2F0E433F8E098FEA3E09400FF221273
:101AF0001AF322121AF8F922E024FFF8A3E034FFC7
:101B000022E0121B06222401F8A3E03400F922E0AF
:101B1000FAA3E0FB22E0FAA3E0FB7920741822127A
:101B20001B7422121B74E822C3E09EA3E0121B3137
:101B3000229FA2D265D03322121AF3740222121B02
:101B40004222E0F8A3E0F583888222121B4274301F
:101B5000F022851082851183121B5C22121B7AE011
:101B600022121B5CF50822121B74C3E498F8E49956
:101B700022121B7AE0F8A3E0F922E0F8A3E0F58353
:101B8000888222F8A3E03400F9746222121B9022AA
:101B9000E0FAA3E0F5838A82228510828511831200
:101BA0001B90E022121B90E0FAA3E022121B5C12B1
:101BB0001B4322121B5C2402F8A3E03400F9746278
:101BC00022121B71E8FAE9FB741422121B717406CD
:101BD00022E0FCA3E0F5838C82EAF0A3EBF022E0A4
:101BE00024FFF0A3E034FFF0740822E8F0A3E9F04A
:101BF000740222121117F8A3E022EAF0A3EBF0A37B
:101C0000E4F0A3F0740622121B90E8F0A3E9F0744C
:101C10001422851082851183E0240108121C45E8F6
:101C2000F0A3E9F0740422851082851183E0240179
:101C3000F0A3E03400F0221211132401F8121C4525
:101C4000E8F0A3E922A3E03400F98510828511832E
:101C50002253C6BFE59EA2E640FA53C6B8020078FA
:101C600075F10075F33C53FF3F43868043C50B433A
:101C7000C2D8D2E943864043A88402007874F712A0
:101C80000B0C78007900801E8A828B83E0F5C18A74
:101C9000828B83A3AA82AB83A2E950FCC2E9E82429
:101CA00001F8E93400F9C3E89CE99D40DB75C10AFD
:101CB000A2E950FCC2E97F01020B787C007D008024
:101CC00019E82401F8E93400F9C3E89424E99404FC
:101CD00040EFEC2401FCED3400FDC3EC9AED9B5089
:101CE000067800790080E202007843FD01C280029C
:101CF000007875FE03D290D291E5BBF875BB0075F4
:101D0000B6BF75B43043B44002007874F4120AB51B
:101D1000900200C082C083851082851183AC82ADA1
:101D200083D083D082740C1209EB12010E7400F57B
:101D30009AF5B8F5A81200F61200FC120114D29020
:101D400075B6AFE5B4C3948040F9C290A8BA888252
:101D5000758300A882A983E5BBFA7B00E4CAFBEA8D
:101D600048F8EB49F98808890974057808120AA629
:101D7000A808A90943B44088088909E4F50AF50BC5
:101D80007808120173900217780C1209A878087964
:101D90000C12038290021B780C1209A87808790CA7
:101DA00012073E7808120BBE7C0C7D027404120BE5
:101DB00000AA82AB831201207404120ACB7C0C7D32
:101DC00000851082851183AA82AB831201027AE812
:101DD0007B03120108D2907AE87B03120108021DEE
:101DE00043C082C0838A828B83121E78E9F08A8284
:101DF0008B83E02401FCA3E03400FD8A828B83EC1A
:101E0000F0A3EDF0D083D08202007874F6120B0CB0
:101E100074FC120AB57402120B00EAF0A3EBF0ECAA
:101E2000FAEDFB740E120B00A882A983851082853F
:101E30001183E8F0A3E9F08510828511838582087B
:101E40008583097808120BC27404120B008582087E
:101E50008583097808120BC27C1A7D0112012C744B
:101E600004120ACB7402120B00121E78E4F0740400
:101E7000120ACB7F02020B78E0F8A3E0F583888298
:011E8000223F
:040000050000006097
:00000001FF
