:020000040000FA
:1000000002002700000080FB120051B9000302002B
:10001000117582E3758300740012003375820375D5
:100020008300740012003375D0007581BF759F0086
:10003000020008C09FF59FE473D09F22D083D08236
:10004000C09FE493C0E0740193C0E0740293F59FF5
:100050002279012212003C72000012003C7A00005A
:1000600012003CA9000012003CB3000012003CBF8B
:10007000000043FD01C2800200397C007D00801930
:10008000E82401F8E93400F9C3E89417E994024040
:10009000EFEC2401FCED3400FDC3EC9AED9B50061F
:1000A0007800790080E202003943FE11C294C290C8
:1000B00002003953F3FD53FDFD538FFD020039C09B
:1000C00082C083A28140137A647B0012005AA2810D
:1000D0004008A28150FC790180027900D083D0824F
:1000E00002003912005412006012006612006CE91E
:0E00F00060FAD2F0A29030F001B3929080EE50
:0400000500000027D0
:00000001FF
